:020000040800F2
:1000000058040020450100080D170008D515000808
:10001000091700082B0700080D1A0008000000004F
:100020000000000000000000000000003917000878
:100030002F070008000000000F1700083B170008FA
:100040005F0100085F0100085F0100085F01000810
:100050005F0100085F0100085F0100085F01000800
:100060005F0100085F0100085F0100085F010008F0
:100070005F0100085F0100085F0100085F010008E0
:100080005F0100085F0100085F0100085F010008D0
:100090005F0100085F0100085F0100085F010008C0
:1000A0005F0100085F0100085F0100085F010008B0
:1000B0005F0100085F0100085F0100085F010008A0
:1000C0005F0100085F0100085F0100085F01000890
:1000D0005F0100085F0100085F0100085F01000880
:1000E0005F0100085F0100085F0100085F01000870
:1000F0005F0100085F0100085F0100085F01000860
:100100005F0100085F0100085F0100085F0100084F
:100110005F0100085F0100085F0100085F0100083F
:100120005F0100085F0100085F0100085F0100082F
:10013000DFF80CD000F0A0FA004800477921000851
:10014000580400200648804706480047FEE7FEE7BF
:10015000FEE7FEE7FEE7FEE7FEE7FEE7FEE7FEE777
:10016000A917000831010008202A04DB203A21FAEF
:1001700002F00021704721FA02F3D040C2F12002C0
:100180009140084319467047D2B201E000F8012BB4
:10019000491EFBD270470022F6E710B513460A4607
:1001A00004461946FFF7F0FF204610BD2DE9FE4F2B
:1001B000804681EA0300C00F0C46009021F0004108
:1001C00023F00045B8EB0200A94105D24046214684
:1001D00090461C460B46024623F00040104347D091
:1001E000270DC7F30A00C3F30A510290401A019089
:1001F00040286BDAC3F3130040F4801B009892464A
:1002000020B10023D2EB030A63EB0B0B0198594694
:10021000C0F14002504600F07AF906460D465046BD
:100220005946019A00F082F910EB08006141002460
:1002300087EA115284EAE7731A4340D0009A62B306
:10024000019A012A4FEA075215DC001B61EB0201FB
:100250004FF0004202EA0752CDE90042001C41F58E
:10026000801132462B4600F0B9F903B0BDE8F08F9B
:1002700040462146F9E7001B61EB0201001C41F5F5
:10028000801300185B412018A2F5001747EB03010B
:1002900040EAD570B6196D4111E06D084FEA360697
:1002A00045EAC0754FEA0752001B61EB0201001CD2
:1002B00041F5801149084FEA30000019514132469A
:1002C0002B4603B0BDE8F04F00F079B90098012249
:1002D00040000023D0EB020263EBE073009821465C
:1002E0004FEAE074B8EB000061EB0401E9E783F04A
:1002F00000435BE781F0004158E72DE9FE4F81EABA
:10030000030404F0004421F0004100944FF0000B7E
:1003100023F0004350EA01045ED052EA03045BD0AC
:10032000C3F30A54C1F30A552C44A4F2F3340194E4
:10033000A0FB0254C1F3130141F48011C3F3130372
:1003400043F4801301FB024400FB034E840A970A26
:1003500044EA815447EA8357A4FB076802958D0A53
:1003600005FB07854FEA932C04FB0C542705029DDF
:100370004FEA065847EA1637B5EB08056EEB070C4F
:10038000870E920E47EA811742EA8312A7FB020109
:10039000B6EB0B0164EB00042B0D43EA0C335E1843
:1003A00044EB1C50DA465146E7FB0201C5F3130447
:1003B0004FEA0B3343EA14534FEA0432019C43EAF9
:1003C0000603A4F10C040294009CCDE900B400F0F3
:1003D00005F903B0BDE8F08F00200146F9E72DE9EB
:1003E000F04D81EA030404F0004B21F0004514466F
:1003F0004FF0000A23F0004150EA050220D054EAF1
:1004000001021DD0C5F30A570246C5F31303C1F319
:100410001300C1F30A5640F4801543F48013A7EB90
:100420000608101BD64608F2FD3873EB050002D310
:1004300008F1010801E092185B41B8F1000F03DAFE
:1004400000200146BDE8F08D00204FF480110646E3
:1004500084460EE0171B73EB050705D3121B63EBF5
:10046000050306434CEA010C49084FEA3000921894
:100470005B4150EA0107EDD152EA030012D082EA53
:10048000040083EA0501084305D0101BAB4106D2E6
:100490000122002306E000224FF0004302E06FF04B
:1004A000010253101AEB06004CEB085110EB0A0046
:1004B00041EB0B01BDE8F04D00F081B80EB540F204
:1004C000334102910021CDE900110A460B4600F0AC
:1004D00085F803B000BD01F0004330B421F00041C5
:1004E00050EA010206D00A0DA2F56072C1F31301B1
:1004F000002A02DC30BC00207047440F44EAC104EB
:10050000C100E01830BC00EBC25000F021B8202A36
:1005100004DB203A00FA02F1002070479140C2F15A
:10052000200320FA03F3194390407047202A06DB8A
:10053000CB17203A41FA02F043EAE07306E041FAB1
:1005400002F3D040C2F1200291400843194670479F
:100550000029A8BF7047401C490008BF20F00100D7
:10056000704710B4B0FA80FC00FA0CF050EA0104B5
:1005700004BF10BC704749B1CCF1200421FA04F447
:1005800011FA0CF118BF012121430843A3EB0C0120
:10059000CB1D4FEA00614FEA102042BF002010BC83
:1005A000704700EBC35010440029A4BF10BC704733
:1005B000401C490008BF20F0010010BC704710B576
:1005C000141E73F1000408DA401C41F10001921876
:1005D0005B411A4301D120F0010010BD2DE9F04D1F
:1005E00092469B4611B1B1FA81F202E0B0FA80F274
:1005F00020329046FFF78BFF04460F4640EA0A0080
:1006000041EA0B0153465A46084313D0114653EAB8
:10061000010019D0C8F140025046FFF7A5FD05467C
:100620000E46504659464246FFF771FF084305D033
:10063000012004E020463946BDE8F08D0020054346
:1006400046EAE0762C4337430A986305E40AA0EBB8
:1006500008000022FD0A44EA47540A3002D500206F
:100660000146E9E7010510196941DDE9084500196E
:100670006941BDE8F04DA2E7064C074D06E0E06891
:1006800040F0010394E8070098471034AC42F6D3D9
:10069000FFF752FD002500082025000870B521F065
:1006A000004303430CD0C1F30A550024D5EB0405E5
:1006B00064EB0403D617AD1AB34102DB00200146F8
:1006C00070BD201841EB025170BD0EB5C10F80EA1C
:1006D000E0700844CA07002140F233438DE80E0061
:1006E0000A460B46FFF77AFF03B000BD70B5C1F3B1
:1006F0000A5201F000450024C1F3130140F2FF3318
:1007000041F480119A4201DA002070BD40F2334377
:100710009A42A2F2334203DC5242FFF725FD00E089
:1007200090402C43F1D0404270BD00BFFEE77047BF
:100730007047000070B5044600F0BEF90646254635
:10074000681C10B104480078054400BF00F0B4F9FB
:10075000801BA842FAD370BD080000202DE9F8479D
:10076000024600239C467BE14FF0010808FA03F49F
:10077000D1F8008008EA0400A0427DD1DFF8F4A29D
:10078000D1F80480A8EB0A09D0453AD014DCB8F1BE
:10079000030F50D009DCB8F1000F31D0B8F1010FD0
:1007A0001CD0B8F1020F49D120E0B8F1110F18D0D8
:1007B000B8F1120F42D11EE0B9F5881F25D006DC32
:1007C000B9F5803F20D0B9F5801F37D11AE0B9F5CF
:1007D000001F18D0B9F5041F30D117E0D1F80CC0B4
:1007E0002DE0D1F80C8008F1040C28E0D1F80C8041
:1007F00008F1080C23E0D1F80C8008F10C0C1EE085
:1008000000BF00BF00BF00BF00BF00BFD1F808801D
:10081000B8F1000F02D14FF0040C0BE0D1F80880C2
:10082000B8F1010F03D14FF0080C146102E04FF052
:10083000080C546103E04FF0000C00E000BF00BF63
:10084000FF2801D8904601E002F104084646FF283F
:1008500002D84FEA830803E0A3F108084FEA8808AA
:100860004746D6F800804FF00F0909FA07F928EA41
:1008700009080CFA07F900E07AE048EA0908C6F826
:100880000080D1F8048008F08058B8F1805F6FD103
:1008900000BFDFF8E481D8F8188048F00108DFF8DD
:1008A000D891C9F81880C846D8F8188008F001080F
:1008B000CDF8008000BF00BF4FEAB9384FEA930976
:1008C00058F829504FEA83784FEA18794FF00F080B
:1008D00008FA09F825EA0805DFF8A081424502D1A7
:1008E0004FF0000824E0DFF89881424502D14FF034
:1008F00001081DE0DFF88C81424502D14FF002086B
:1009000016E0DFF88481424502D14FF003080FE082
:10091000DFF87881424502D14FF0040808E0DFF8A3
:100920007081424502D14FF0050801E04FF0060802
:100930004FEA83794FEA197908FA09F848EA050578
:10094000DFF850814FEA930948F82950D1F8048024
:1009500008F48038B8F5803F0BD1DFF83C81D8F837
:10096000008048EA0008DFF83091C9F800800AE00A
:1009700075E0DFF82481D8F8008028EA0008DFF865
:100980001891C9F80080D1F8048008F40038B8F54F
:10099000003F0ED1DFF8008108F10408D8F800808C
:1009A00048EA0008DFF8F09009F10409C9F800806E
:1009B0000DE0DFF8E48008F10408D8F8008028EAA8
:1009C0000008DFF8D49009F10409C9F80080D1F8D3
:1009D000048008F48018B8F5801F0ED1DFF8B880C5
:1009E00008F10808D8F8008048EA0008DFF8A89065
:1009F00009F10809C9F800800DE0DFF89C8008F1D2
:100A00000808D8F8008028EA0008DFF88C9009F17F
:100A10000809C9F80080D1F8048008F40018B8F576
:100A2000001F0ED1DFF8708008F10C08D8F80080A4
:100A300048EA0008DFF8609009F10C09C9F8008065
:100A40000DE0DFF8548008F10C08D8F8008028EA9F
:100A50000008DFF8449009F10C09C9F800805B1C1C
:100A6000D1F8008028FA03F8B8F1000F7FF47CAECB
:100A7000BDE8F88700001110001002400008014096
:100A8000000C01400010014000140140001801401A
:100A9000001C014008000140000401400246936828
:100AA0000B400BB1012000E0002070470AB101614A
:100AB00001E00B04036170470148006870470000C3
:100AC00000000020034800680349097808440149F0
:100AD00008607047000000200800002010B508489A
:100AE000006840F0100006490860032000F098F804
:100AF000002000F007F800F02BF8002010BD0000E7
:100B00000020024070B504460E4800784FF47A7118
:100B1000B1FBF0F00C490968B1FBF0F5284600F094
:100B2000FBFB08B1012070BD102C07D2002221462A
:100B3000501E00F037F80548046001E00120F2E79C
:100B40000020F0E7080000200C0000200400002036
:100B500008B500BF1148806940F001000F49886165
:100B60000846806900F00100009000BF00BF00BF90
:100B70000846C06940F08050C8610846C06900F06E
:100B80008050009000BF00BF00BF0549486820F0BA
:100B9000E06040F00070486000BF08BD00100240F7
:100BA000000001402DE9F05F80460D461646002703
:100BB00000F042FF074639462A46334601F0070057
:100BC000C0F1070ABAF1040F02D94FF0040A01E09C
:100BD000C0F1070AD14600F1040ABAF1070F02D2A8
:100BE0004FF0000A01E0A0F1030AD4464FF0010AD9
:100BF0000AFA09FAAAF1010A0AEA020A0AFA0CFA3E
:100C00004FF0010B0BFA0CFBABF1010B0BEA030BE2
:100C10004AEA0B042146404600F016FFBDE8F09F6B
:100C200000BF00F00702064B19684FF6FF0319409A
:100C3000044B0B4343EA0221014B196000BF70478C
:100C40000CED00E00000FA0570B504460D460CB945
:100C5000012070BD5A48006800F00700A8420ED27B
:100C60005748006820F007002843554908600846A7
:100C7000006800F00700A84201D00120E9E72078D1
:100C800000F0020002281DD1207800F004000428A2
:100C900005D14C48406840F4E0604A4948602078FB
:100CA00000F00800082805D14648406840F460502C
:100CB000444948604348406820F0F000A168084378
:100CC00040494860207800F0010078B3606801284E
:100CD00006D13C48006800F4003090B90120B8E724
:100CE0006068022806D13748006800F0007040B9FB
:100CF0000120AEE73348006800F0020008B9012087
:100D0000A7E73048406820F00300616808432D4998
:100D10004860FFF7D1FE064609E0FFF7CDFE801BD5
:100D200041F28831884202D9032092E707E0254842
:100D3000406800F00C006168B0EB810FEDD12048F5
:100D4000006800F00700A8420ED91D48006820F096
:100D5000070028431A4908600846006800F00700A9
:100D6000A84201D0012074E7207800F00400042894
:100D700007D11448406820F4E060E1680843114955
:100D80004860207800F00800082808D10D48406825
:100D900020F46050216940EAC1000A49486000F02F
:100DA0003FF808494968C1F30311074A515CC8403C
:100DB0000649086006480068FFF7A4FE002048E7DF
:100DC0000020024000100240C82300080C00002050
:100DD0000400002001480068704700000C0000205B
:100DE00000B5FFF7F7FF04494968C1F30221034A40
:100DF000515CC84000BD000000100240D82300082C
:100E000000B5FFF7E7FF04494968C1F3C221034A6F
:100E1000515CC84000BD000000100240D82300080B
:100E2000F0B585B00FF26C0C9CE8E01001A8A0E8CA
:100E3000E0101CA52D68009500210022002300244D
:100E40000020194D696801F00C05F5B1042D02D0A0
:100E5000082D19D101E0154819E001ADC1F3834611
:100E6000AC5D01F4803555B10F4D6D68C5F340455B
:100E70001DF805200D4D6543B5FBF2F302E00C4D66
:100E800004FB05F3184602E000BF084800BF00BF9E
:100E900005B0F0BD02030405060708090A0B0C0D96
:100EA0000E0F1010010200000010024000127A0024
:100EB00000093D00F8B504460CB90120F8BD2078C2
:100EC00000F00100002878D0F848406800F00C00DD
:100ED00004280CD0F548406800F00C00082811D117
:100EE000F248406800F48030B0F5803F0AD1EF4806
:100EF000006800F4003000285FD0606800285CD1F2
:100F00000120DBE700BF6068B0F5803F06D1E7480D
:100F1000006840F48030E549086028E0606858B90E
:100F2000E248006820F48030E04908600846006824
:100F300020F4802008601AE06068B0F5A02F0BD183
:100F4000DA48006840F48020D84908600846006804
:100F500040F4803008600AE0D448006820F4803013
:100F6000D24908600846006820F48020086000BF6D
:100F7000606888B1FFF7A0FD054606E0FFF79CFD1D
:100F8000401B642801D9032098E7C848006800F492
:100F900000300028F2D010E0FFF78EFD054606E095
:100FA000FFF78AFD401B642801D9032086E7BF486C
:100FB000006800F400300028F2D1207800F0020030
:100FC000022857D1B948406800F00C0050B1B7482A
:100FD000406800F00C00082818D1B448406800F4BC
:100FE000803098B9B148006800F0020020B1206953
:100FF000012801D0012061E7AC48006820F0F8002A
:10100000616940EAC100A949086033E02069E8B19C
:101010000120A7490860FFF74FFD054606E0FFF7EE
:101020004BFD401B022801D9032047E79F48006879
:1010300000F002000028F2D09C48006820F0F80080
:10104000616940EAC1009949086013E000209849AD
:101050000860FFF731FD054606E0FFF72DFD401B58
:10106000022801D9032029E79048006800F0020017
:101070000028F2D1207800F0080008282DD1A069BE
:10108000B8B101208B490860FFF716FD054606E060
:10109000FFF712FD401B022801D903200EE7834809
:1010A000406A00F002000028F2D0012000F030FB7E
:1010B00013E000207F490860FFF7FEFC054606E0CC
:1010C000FFF7FAFC401B022801D90320F6E6774817
:1010D000406A00F002000028F2D1207800F00400FD
:1010E000042873D100277148C06900F0805070B99E
:1010F00000BF6E48C06940F080506C49C861084626
:10110000C06900F08050009000BF00BF01276A480E
:10111000006800F48070B0B96748006840F48070DF
:1011200065490860FFF7C8FC054606E0FFF7C4FC08
:10113000401B642801D90320C0E65F48006800F422
:1011400080700028F2D000BFE068012806D157481F
:10115000006A40F001005549086227E0E06858B98C
:101160005248006A20F00100504908620846006AAF
:1011700020F00400086219E0E06805280BD14B4814
:10118000006A40F00400494908620846006A40F0DD
:10119000010008620AE04548006A20F00100434966
:1011A00008620846006A20F00400086200BFE06898
:1011B000A0B1FFF781FC054609E0FFF77DFC401B6D
:1011C00041F28831884202D9032077E622E037488D
:1011D000006A00F002000028EFD012E0FFF76CFC7C
:1011E000054608E0FFF768FC401B41F28831884261
:1011F00001D9032062E62D48006A00F002000028B1
:10120000F0D1012F05D12948C06920F0805027492D
:10121000C86100BFE069C8B32448406800F00C0012
:10122000082860D0E069022848D1002020490866DB
:10123000FFF742FC054606E0FFF73EFC401B022894
:1012400001D903203AE61948006800F00070002830
:10125000F2D1206AB0F5803F07D11448406820F4ED
:101260000030A168084311494860D4E908010843E7
:101270000E49496821F4741108430C494860012063
:101280000B490866FFF718FC054607E03DE0FFF74D
:1012900013FC401B022801D903200FE60348006815
:1012A00000F000700028F2D02FE000000010024093
:1012B0000000424280044242007000400020144975
:1012C0000866FFF7F9FB054606E0FFF7F5FB401B54
:1012D000022801D90320F1E50E48006800F00070F3
:1012E0000028F2D111E0E069012800D1E6E50948C3
:1012F000466806F48031206A814204D106F47011F8
:10130000606A814201D00120D8E50020D6E50000C6
:10131000000042420010024070B504462546681E97
:10132000B0F1807F01D301200FE0681E4FF0E02173
:1013300048610F214FF0FF3000F086FB00204FF096
:10134000E021886107200861002070BD10B50446C7
:101350000CB9012010BDA06900B100E000BF94F8F5
:10136000390028B9002084F83800204600F028F819
:10137000242084F839002068C06820F400502168D7
:10138000C860204600F03CFA2068006920F49040D4
:10139000216808612068406920F02A0021684861BE
:1013A0002068C06840F400502168C8600020E063F5
:1013B000202084F8390084F83A000020CAE70000B1
:1013C00010B586B00446002002900390049005906A
:1013D0001A49206888422ED100BF1948C06940F4DC
:1013E00080201749C8610846C06900F48020019038
:1013F00000BF00BF00BF0846806940F00800886158
:101400000846806900F00800019000BF00BF081581
:101410000290022003900320059002A90948FFF7DB
:101420009DF94FF40060029000200390049002A9FF
:101430000448FFF793F906B010BD000000480040D3
:1014400000100240000C01402DE9F84304460D460F
:1014500016461F464FF0000994F8390020285CD149
:1014600005B116B90120BDE8F88300BF94F8380033
:10147000012801D10220F6E7012084F8380000BFDE
:101480000020E063212084F83900FFF715FB814636
:10149000A684E6842BE0E08C401EE084A068B0F5D2
:1014A000805F16D14B46002280212046009700F035
:1014B00077FA08B10320D6E7A846B8F80000C0F3D1
:1014C000080021684860206908B9AD1C0FE06D1C58
:1014D0000DE04B46002280212046009700F060FA84
:1014E00008B10320BFE715F8010B21684860E08CC4
:1014F0000028D0D14B46002240212046009700F022
:101500004FFA08B10320AEE7202084F8390000BF6D
:10151000002084F8380000BFA5E70220A3E7000000
:1015200070B505460026012240212948FFF7BEFA82
:101530000120FFF7FFF8012208212548FFF7B6FA3E
:101540000120FFF7F7F8002240212148FFF7AEFA0B
:101550000120FFF7EFF800242DE0002208211C48AD
:10156000FFF7A4FAC4F10F0101208840284028B9F0
:10157000002220211648FFF799FA04E001222021D9
:101580001348FFF793FA0120FFF7D4F8012208214E
:101590000F48FFF78BFA10210D48FFF77FFA01285B
:1015A00004D1C4F10F018840304386B20120FFF717
:1015B000C1F8601CC4B2102CCFDB012240210448CA
:1015C000FFF774FA0120FFF7B5F8304670BD000050
:1015D000000C014000BFFEE700B585B0002001907F
:1015E00002900390049000BF3548806940F02000CD
:1015F000334988610846806900F02000009000BFF0
:1016000000BF00BF0846806940F0080088610846B6
:10161000806900F00800009000BF00BF00BF0846CE
:10162000806940F0040088610846806900F0040089
:10163000009000BF00BF002289152248FFF736FA4C
:10164000002204212048FFF731FA012248211F48D7
:10165000FFF72CFA002220211C48FFF727FA4FF44D
:1016600080700190112002900020039002200490CD
:1016700001A91448FFF772F804200190112002908C
:10168000002003900220049001A90F48FFF766F89C
:101690006820019001200290002003900320049014
:1016A00001A90A48FFF75AF8102001900020029083
:1016B000039001A90548FFF751F805B000BD0000EF
:1016C000001002400008014000140140000C0140DD
:1016D00010B50B480B4908604FF4612048600021A9
:1016E00008488160C16001610C2141610021816174
:1016F000C161FFF72BFE08B1FFF71AF810BD00001B
:10170000004800401400002000BFFEE7704770470B
:1017100008B508490968C9084FF47A72B1FBF2F1BB
:101720004143009100BF00BF00994A1E009200296A
:10173000F9D108BD0C000020704710B5FFF7C2F9C1
:1017400010BD00B58FB0282105A8FEF724FD142197
:101750006846FEF720FD0120059000040690002059
:1017600007900120099002200C90C1030D914FF4C5
:10177000E0110E9105A8FFF79DFB08B1FEF7D8FF19
:101780000F20009002200190002002904FF4806012
:1017900003900020049002216846FFF755FA08B133
:1017A000FEF7C6FF0FB000BD1148006840F0010011
:1017B0000F490860084640680E4908400C494860D7
:1017C000084600680C490840094908600846006856
:1017D00020F4802008600846406820F4FE0048603D
:1017E0004FF41F008860C803044908607047000078
:1017F000001002400000FFF8FFFFF6FE08ED00E0D9
:1018000070B504462168096921F44051E26811432A
:10181000226811612269A1681143626941EA0205E7
:101820002168C96841F20C62914329432268D16062
:101830002168496921F44071A2691143226851610C
:10184000564A2168914254D1FFF7DAFA00EBC00101
:1018500001EB001162689200B1FBF2F100EBC002F3
:1018600002EB001263689B00B2FBF3F26423B2FB4D
:10187000F3F202EBC20303EB0212A1EB820132226C
:1018800002EB01116422B1FBF2F101F0F00100EB77
:10189000C00202EB001263689B00B2FBF3F2642308
:1018A000B2FBF3F201EB021200EBC00101EB0011FD
:1018B00063689B00B1FBF3F100EBC00303EB001383
:1018C0006668B600B3FBF6F36426B3FBF6F303EBEE
:1018D000C30606EB0313A1EB8301322303EB0111D3
:1018E0006423B1FBF3F101F00F0111442268916010
:1018F00053E0FFF775FA00EBC00101EB00116268DD
:101900009200B1FBF2F100EBC00202EB001263683F
:101910009B00B2FBF3F26423B2FBF3F202EBC203CF
:1019200003EB0212A1EB8201322202EB01116422CD
:10193000B1FBF2F101F0F00100EBC00202EB00128A
:1019400063689B00B2FBF3F26423B2FBF3F201EB9A
:10195000021200EBC00101EB001163689B00B1FBB8
:10196000F3F100EBC00303EB00136668B600B3FBB2
:10197000F6F36426B3FBF6F303EBC30606EB03139F
:10198000A1EB8301322303EB01116423B1FBF3F1DB
:1019900001F00F0111442268916070BD00380140D0
:1019A0002DE9F04104460D4617469846069E21E073
:1019B000701CF8B12EB1FFF77FF8A0EB0800B04221
:1019C00018D92068C06820F4D0702168C8602068E9
:1019D000406920F0010021684861202084F8390026
:1019E00084F83A0000BF002084F8380000BF0320CC
:1019F000BDE8F081206800682840A84201D101209C
:101A000000E00020B842D3D00020F1E700BFFEE79D
:101A1000490050EAC12018BF04204A0D18BF40F009
:101A2000010040F2FF72B2EB515F08BF40F00200CC
:101A3000012808BF0520704702480068C0F3022053
:101A4000704700000CED00E010B5002804DB0A0729
:101A5000130E054A135406E00A07140E034A00F059
:101A60000F031B1FD45410BD00E400E018ED00E08C
:101A70002DE9F74F144694B00021C4E902111599DD
:101A8000079121F00045C9498D4206DC1599C4E94A
:101A9000000117B00020BDE8F08FC549DFF814A39E
:101AA000A9423CDD0799C44E0029C44FC44A159988
:101AB000534619DDFEF71BFC554506D0C14AC24B03
:101AC000FEF715FCC4E900010AE04FF0D352BE4B0B
:101AD000FEF70DFC32463B46FEF709FCC4E9000167
:101AE00017B00120BDE8F08FFEF760FB554506D02A
:101AF000B44AB54BFEF75AFBC4E900010AE04FF0C7
:101B0000D352B14BFEF752FB32463B46FEF74EFB3B
:101B1000C4E9000117B04FF0FF30BDE8F08FAB49CA
:101B2000A942159978DB21F0004183468846A84AEE
:101B3000A84BFEF7E2FB0022A74BFEF737FBFEF7B0
:101B4000D5FD0990FEF7C1FD06460F469C4A534657
:101B5000FEF7D3FB43465A46FEF7CCFB80468A4647
:101B6000984A994B30463946FEF7C7FB2A0D0125A6
:101B70000B9242465346FEF7BDFB032DC4E900011C
:101B800039D00B98C1F30A51401A05EB45111139B0
:101B9000814230DA9148C346784400EB0510CDF815
:101BA0000CA00C90D0E9002330463946FEF7A5FB87
:101BB00002460B460491069058460399FEF797FBA0
:101BC00080468A4602460B4658460399FEF78FFB2D
:101BD000049B069AFEF78BFB83460C9803913946CB
:101BE000D0E902233046FEF788FB5A46039BFEF7F6
:101BF0007EFB6D1CBDE707980028A2BF099817B0AF
:101C0000BDE8F08F616881F000416160099817B00C
:101C10004042BDE8F08FFFE784461598C1F31301F9
:101C2000C0F30A50A0F2F5304FEA601800F01F062A
:101C3000C6F12000139000200690079041F4801E0A
:101C400005206D4676B1664A08EB00017A4452F8E9
:101C5000213002EB8101B3404A68139922FA01F165
:101C6000194305E05F4908EB0002794451F822105E
:101C7000A1FB0E27A1FB0C131A449A4234BF012387
:101C8000002303EB070A05EB8003D3E901B70F44F8
:101C90008F4234BF0121002193448B4411B19345FD
:101CA00002D903E0934501D2012100E00021C3E9FC
:101CB00001B7514445F82010011EA0F10100C1DC1C
:101CC0000298059F00F10050800F12900298DDE904
:101CD00003568000FEF7F9FC834628460D91FEF777
:101CE000EDFB6FF01D02FEF7D9FCCDE90E01304689
:101CF000FEF7E4FB6FF03D02FEF7D0FC80468A461B
:101D00003846FEF7DBFB6FF05D02FEF7C7FC0746C7
:101D1000424653461191FEF749FADDE90E23FEF7DC
:101D200045FA5A460D9BFEF741FA00250E465A46E3
:101D300028460D9BFEF7DBFADDE90E23FEF7D7FA06
:101D400042465346FEF7D3FA3A46119BFEF7D2FAC3
:101D5000DFF898A0244A5346FEF7CFFA0746884694
:101D6000234A244B31462846FEF7C7FA3A464346F3
:101D7000FEF71CFA074688464FF0A8425346314604
:101D80002846FEF7BAFA3A464346FEF70FFA159A86
:101D900012F0004F04D0129A81F000415242129288
:101DA000C4E90001129817B0BDE8F08FFB21E93FAC
:101DB0007CD90240FB21F93F7370032E8A19A33BA3
:101DC000000040543163621A61B4D03DFB213941B7
:101DD00083C8C96D305FE43F0000E03F7408000035
:101DE000F0070000D2070000182D4454FB21F93DF4
:101DF0003326A611460B113C2DE9FF4D21F000487A
:101E000007460C46B8F1795F08DAFEF76FFC002848
:101E100001BF0020324904B0BDE8F08D3A462346A8
:101E200010461946FEF769FA054602462D480E4649
:101E30000B460621784400F05DF82A463346FEF74B
:101E40005CFADDE9022382468B4638462146FEF7DE
:101E500054FA04460F4652465B4628463146FEF782
:101E60004CFA22463B46FEF742FA07468A464FF0B6
:101E7000FF3228463146FEF711FC1B4A90450ADA2C
:101E80003A465346FEF733FA04B00022BDE8F04D5F
:101E9000134BFEF72FBA154A4245A8BFA8F5001507
:101EA0004FF00004B8BF124D22462B46FEF71FFA32
:101EB0000646884622462B4600200949FEF717FAB7
:101EC00004460D463A46534630464146FEF70FFA61
:101ED00004B022462B46BDE8F04DFEF70BBA0000D9
:101EE0000000F03FA80500003333D33F0000E93F76
:101EF0000000D23F2DE9F0414F1E00EBC701044620
:101F0000D1E9000115461E4637F006020DD02A46DB
:101F10003346FEF7F2F97F1E04EBC703D3E9002333
:101F2000FEF744F937F00602F1D1022F25D0042F35
:101F300013D0062F18BFBDE8F0812A463346FEF7BE
:101F4000DCF9D4E90A23FEF731F92A463346FEF7D5
:101F5000D4F9D4E90823FEF729F92A463346FEF7D7
:101F6000CCF9D4E90623FEF721F92A463346FEF7D9
:101F7000C4F9D4E90423FEF719F92A463346FEF7DB
:101F8000BCF9D4E90223FEF711F92A463346FEF7DD
:101F9000B4F9D4E90023BDE8F041FEF707B9000029
:101FA0002DE9FF4D054621F0004084B00C46B0F10C
:101FB000795F0BDA2846FFF72BFD042808BF00F0F5
:101FC0006FF8284608B02146BDE8F08D2A460B463A
:101FD0001046FEF792F906460F462A462346FEF7BC
:101FE0008CF9804626488A4632463B46052178448D
:101FF000FFF780FF83461098029160B3214A224B7D
:1020000040465146FEF779F9CDE900015A4640466F
:102010005146029BFEF771F982468846DDE90601CA
:102020004FF0FF32FEF73AFB52464346FEF75FF9A8
:1020300032463B46FEF761F9DDE90623FEF757F924
:10204000DDE90023FEF753F908B02A462346BDE830
:10205000F04DFEF74FB90B465A4630463946FEF76B
:102060004CF9084A084BFEF7A1F842465346FEF7E2
:1020700044F908B02A462346BDE8F04DFEF796B86D
:10208000E6040000495555555555C5BF0122FEF7D8
:1020900005BB0022134610461146FEF7A0B900000A
:1020A000024A00201107FEF7F9BA000001FDFFFF08
:1020B00002E008C8121F08C1002AFAD17047704711
:1020C000002001E001C1121F002AFBD1704700006F
:1020D00001490860704700001000002000B5244B43
:1020E00021F0004287B09A42DCBF0022134629DD6E
:1020F000204B9A4208D140B94FF00100FFF7E8FFAA
:10210000FFF7C7FF07B000BD03DBFFF7BFFF07B056
:1021100000BD02AAFFF7ACFC10F0030104BF0DF1F3
:10212000080C9CE80F000DD0012001290ED00229D7
:1021300014D00DF1080C00909CE80F00FFF730FF61
:1021400007B000BDFFF758FE07B000BD0DF1080C49
:1021500000909CE80F00FFF723FF05E00DF1080C4D
:102160009CE80F00FFF748FE07B081F0004100BD7A
:10217000FB21E93F0000F07F86B0FEF7AFFCFFF7E0
:10218000E0FAFFF729FAFFF7A3FA00210C460D4603
:10219000894600BF00BF8EE01E20FEF7CBFA09F192
:1021A0000109454A454B20462946FDF7FFFF0446F5
:1021B0000D462046294600F0B7F82046294600F093
:1021C000B3F82046294600F0AFF822462B460020FF
:1021D0003B49FEF792F80746FFF780FF22462B4661
:1021E00000203849FEF789F80746FFF777FF2246B7
:1021F0002B4600204FF08041FEF77FF80746FFF79F
:102200006DFF20462946FFF769FF4FF0000A0026C0
:1022100046F4004646F470563046FFF781F983468F
:102220000BF0FF0040EA0A0A002646F4004646F496
:102230006C563046FFF774F983460BF0FF004AEA0C
:10224000002A5046FEF73AF907461F4A1F4BFEF791
:10225000C6F800221E4BCDE90001FDF7A7FFCDE92E
:102260000201FEF738F90490049800F037F82820AE
:10227000B9FBF0F100FB119058B900224FF48071C6
:102280001448FEF713FC002204211348FEF70EFC4D
:1022900010E02820B9FBF0F100FB1190142809D1BF
:1022A000012211020B48FEF701FC012204210A4819
:1022B000FEF7FCFB00BF6FE77B14AE47E17A843F7B
:1022C0000000104000000840CDCCCCCCCC6C744059
:1022D0000000394000080140001401407CB504466C
:1022E0000725A5208DF8000000208DF805005A2054
:1022F0008DF80600CDF80140012008E09DF805109A
:102300001DF800201144C9B28DF80510401C0528A5
:10231000F4D34FF6FF73072269460248FFF794F89B
:102320007CBD00001400002000B5254B21F00042C8
:1023300087B09A4203DC0022134600922BE0214B27
:102340009A4208D140B94FF00100FFF7C1FEFFF7F4
:10235000A0FE07B000BD03DBFFF798FE07B000BD8D
:1023600002AAFFF785FB10F003014FF001000DD02A
:10237000012914D002291AD00DF1080C9CE80F0095
:10238000FFF73AFD07B081F0004100BD0DF1080CE8
:1023900000909CE80F00FFF703FE07B000BD0DF1B1
:1023A000080C9CE80F00FFF727FD07B000BD0DF1FA
:1023B000080C00909CE80F00FFF7F2FDE2E7000038
:1023C000FB21E93F0000F07F00000000000000005A
:1023D00001020304060708090000000001020304CB
:1023E0004C5555555555A53F7751C1166CC156BF33
:1023F0009015CB19A001FA3EAD529C804F7E92BE43
:10240000C4B1B4BD9EEE213ED43888BEE9FAA8BD61
:1024100000004054FB21F93F3163621A61B4D03DA2
:102420000000601A61B4D03D7370032E8A19A33B7B
:102430000000002E8A19A33BC14920259A837B39CD
:1024400000000000000000006E83F9A22915444E30
:10245000D15727FCC0DD34F5999562DB4190433CB0
:10246000AB6351FE61C5BBDE3A6E24B7E0D24D428C
:10247000EA2E49061C92D1091CEB1DFE3EA729B18C
:10248000F53582E88444BB2E26709CE9417E5FB41A
:1024900039D69139F43953838B5F849C3B28F9BD3D
:1024A000FF97F81F0F9805DE8B112FEF1F6D0A5A4B
:1024B000CF7E366DB709CB27663F464F2DEA5F9E2C
:1024C000C7BA27757BF1E5EBF739073DEA92528AE7
:1024D000B15FFB6B085D8D1FA6F810111111813FD4
:1024E000D561C119A0012ABF7DFEB157E31DC73ECA
:1024F000EB9C2B8AE6E55ABE7CD5CF5A3AD9E53D0E
:10250000202500080000002014000000B020000872
:10251000342500081400002044040000C0200008F6
:102520000000000010000000010000000024F40082
:0425300000000000A7
:0400000508000131BD
:00000001FF
